:020000040800F2
:1000000000000824C1990008E1980008E39800085E
:10001000E5980008E7980008E9980008000000004B
:100020000000000000000000000000007115010841
:10003000EB98000800000000011601086516010891
:10004000119A0008119A0008119A0008119A0008E4
:10005000119A0008119A0008119A0008119A0008D4
:10006000ED980008119A0008119A0008119A0008EA
:10007000119A0008119A0008F5980008119A0008D2
:10008000119A0008119A0008119A0008119A0008A4
:10009000119A0008119A0008119A0008119A000894
:1000A000119A0008119A0008119A0008119A000884
:1000B000119A0008119A0008119A0008119A000874
:1000C000119A0008119A0008119A0008119A000864
:1000D000119A000801990008119A0008119A000865
:1000E00025990008119A000800000000119A0008E4
:1000F000119A0008119A0008119A0008119A000834
:10010000119A0008119A0008119A0008119A000823
:10011000119A0008119A00080D990008119A000818
:10012000119A0008119A0008119A0008119A000803
:10013000119A0008119A0008119A0008119A0008F3
:10014000119A0008119A0008000000000000000049
:10015000119A0008119A0008119A0008119A0008D3
:10016000119A0008119A0008119A0008119A0008C3
:10017000119A0008119A0008119A00080000000066
:10018000119A0008119A0008119A0008119A0008A3
:10019000119A0008119A0008119A0008119A000893
:1001A000119A0008119A0008119A0008119A000883
:1001B000119A0008119A0008119A0008119A000873
:1001C000119A0008119A0008119A0008119A000863
:1001D000119A0008119A0008119A0008119A000853
:1001E000119A0008119A0008119A0008119A000843
:1001F000119A0008119A0008119A0008119A000833
:10020000119A0008119A0008119A0008119A000822
:10021000119A0008119A0008119A0008119A000812
:10022000119A0008119A0008119A000800000000B5
:10023000119A0008119A0008119A0008119A0008F2
:10024000119A0008119A0008119A0008119A0008E2
:10025000119A0008119A0008119A0008119A0008D2
:10026000119A0008119A0008119A0008119A0008C2
:10027000119A0008119A0008119A0008119A0008B2
:10028000119A0008119A0008119A00080000000055
:08029000119A0008119A000800
:1002A00010B5054C237833B9044B13B10448AFF3B0
:1002B00000800123237010BD98020024000000007C
:1002C000E467030808B5034B1BB103490348AFF3C8
:1002D000008008BD000000009C020024E4670308C1
:1002E00010F8012B11F8013B012A28BF9A42F7D0E0
:1002F000D01A70470000000000000000000000005D
:1003000001F0FF01102A2BDB10F0070F08D010F8C6
:10031000013B013A8B422DD010F0070F42B3F6D1CA
:10032000F0B441EA012141EA014122F007047FF0E3
:1003300000070023F0E80256083C85EA010586EA3A
:10034000010685FA47F5A3FA87F586FA47F6A5FA76
:1003500087F68EB9EED1F0BC01F0FF0102F0070282
:1003600032B110F8013B013A83EA010313B1F8D12D
:100370000020704701387047002D06BF354603380E
:10038000073815F0010F07D1013015F4807F02BF47
:10039000013015F4C03F0130F0BC0138704700BF98
:1003A000034613F8012B002AFBD1181A01387047B5
:1003B00053B94AB9002908BF00281CBF4FF0FF31CC
:1003C0004FF0FF3000F070B9ADF1080C6DE904CECC
:1003D00000F006F8DDF804E0DDE9022304B0704720
:1003E0002DE9F047089E0D4604460F46002B4AD1E2
:1003F0008A42944665D9B2FA82F343B102FA03FC09
:10040000C3F120029F4020FA02F217439C404FEABA
:100410001C4E1FFA8CF5B7FBFEF1220C0EFB117778
:1004200042EA074201FB05F090420AD91CEB0202A6
:1004300001F1FF3780F01C81904240F219810239AE
:100440006244121AA4B2B2FBFEF00EFB102244EA80
:10045000024400FB05F5A5420AD91CEB040400F197
:10046000FF3280F00781A54240F2048164440238E3
:1004700040EA0140641B00211EB1DC400023C6E9B4
:100480000043BDE8F0878B4208D9002E00F0ED80D4
:100490000021C6E900050846BDE8F087B3FA83F1FC
:1004A000002949D1AB4202D3824200F2F880841A7B
:1004B00065EB030201201746002EE2D0C6E9004793
:1004C000DFE702B9FFDEB2FA82F3002B40F0908042
:1004D0008A1A4FEA1C471FFA8CFE0121B2FBF7F57E
:1004E00007FB1520220C42EA00420EFB05F0904269
:1004F00008D91CEB020205F1FF3802D2904200F24B
:10050000CB804546121AA4B2B2FBF7F007FB1022CB
:1005100044EA02440EFB00FEA64508D91CEB040485
:1005200000F1FF3202D2A64500F2BB801046A4EBD8
:100530000E0440EA05409FE7C1F120078B4022FAF4
:1005400007FC4CEA030C05FA01F420FA07F3FD401E
:100550004FEA1C492343B5FBF9F81FFA8CFE09FB4F
:1005600018551C0C44EA054408FB0EF5A54202FA96
:1005700001F200FA01F00BD91CEB040408F1FF3A78
:1005800080F08880A54240F28580A8F1020864448A
:10059000641B9DB2B4FBF9F309FB134445EA044420
:1005A00003FB0EFEA64508D91CEB040403F1FF353E
:1005B0006CD2A6456AD9023B644443EA0843A3FBD4
:1005C0000295A4EB0E04AC42C846AE4656D353D0B7
:1005D00056B1B0EB080264EB0E0404FA07F7CA4008
:1005E000CC401743C6E9007418460021BDE8F087E7
:1005F000C3F1200102FA03FC20FA01F225FA01F10D
:100600009D402A434FEA1C471FFA8CFEB1FBF7F0CE
:1006100007FB1015110C41EA054100FB0EF58D4258
:1006200004FA03F408D91CEB010100F1FF382FD2C2
:100630008D422DD902386144491B92B2B1FBF7F5C6
:1006400007FB151142EA014205FB0EF1914208D960
:100650001CEB020205F1FF3816D2914214D9023D7B
:100660006244521A45EA004138E73146304608E70D
:100670003946E6E61046FBE64845A9D2B9EB020842
:1006800065EB0C0E013BA3E74546EAE72B4694E7F2
:100690004046D1E7D0467BE7023D624432E7084658
:1006A0000AE76444023842E7704700BF2D4BD3F895
:1006B000882042F47002C3F888201A6942F01002C0
:1006C0001A61294A136803F00F03062B05D8136833
:1006D00023F00F0343F007031360244B1A6842F022
:1006E00001021A6000221A61214A19680A401E4953
:1006F0001A600A68120705D50A6822F00F0242F054
:1007000007020A6000221B499A61DA611A62996243
:100710001949D962194919635A639963DA631964EB
:100720005A64196821F4802119601A664FF0B042AA
:10073000D2F8E43043F48043C2F8E430104B1B6835
:100740001B0C1B04B3F1005F03D20E4B0122C3F854
:1007500008210D4B43F2D2021A604FF00062014BA8
:100760009A60704700ED00E00020005200440258FB
:100770007FEDF6EA000202020000FF0180020101A3
:100780000010005C008000510040005203090A2262
:1007900000F00F0002FB03007047000001464C22EE
:1007A000024808B534F05CFA08BD00BFB802002466
:1007B0002DE9F043072387B04FF47A720446D02125
:1007C0002448CDE9013204AB0022009301230CF050
:1007D000AFFC9DF81000FFF7D9FF5FFA80F99DF894
:1007E000110084F80090FFF7D1FF5FFA80F89DF8C0
:1007F000120084F80180FFF7C9FFC7B29DF813000B
:10080000A770FFF7C3FFC6B29DF81400E670FFF7AC
:10081000BDFFC5B29DF815002571FFF7B7FFC1B246
:100820009DF816006171FFF7B1FF0B4AC3B282F861
:1008300000900A4AA37182F80080094A1770094A99
:100840001670094A1570094A1170094A137007B0E9
:10085000BDE8F083B802002406030024040300244A
:10086000B6020024B5020024B402002405030024CB
:10087000070300241049002370B5C1F88430BFF38A
:100880004F8FD1F8803043F6E074C3F3C900C3F34F
:100890004E335B0103EA0406024646EA8275013ADA
:1008A000C1F87452F9D2203B13F1200FF2D1BFF3FB
:1008B0004F8FBFF36F8F70BD00ED00E0084611460B
:1008C000B0F90430002B2DE9F04F85B07ADBB0F998
:1008D0000630002B76DB3D4AB0F900401368013B3F
:1008E0009C426FD85368B0F90240013B9C4269D8E2
:1008F000374C0023C4F88430BFF34F8FD4F88030D6
:1009000043F6E077C3F3C906C3F34E335B0103EA52
:10091000070E35464EEA857C013DC4F874C2F9D213
:10092000203B13F1200FF2D10391BFF34F8FBFF3A0
:100930006F8FBFF34F8FBFF36F8F0023C4F8503218
:10094000BFF34F8FBFF36F8F34269568214CB0F9FA
:10095000009006FB05448588D2F800B00135D2F836
:100960001080E76D4FF48032A5EB09051A4CB0F901
:1009700002A02DB2B0F906602046C4E90123C4E903
:100980000433C5F5F073E360144B23600BF075FE80
:10099000039988B901360BFB0A922B462046A6EB39
:1009A0000A0608FB027236B200960BF0A3FE18B9D5
:1009B000142120460BF0B8FE094805B0BDE8F04F01
:1009C00028F0C6B805B0BDE8F08F00BFF01A0024CB
:1009D00000ED00E0781B0024101B002400100052E2
:1009E00024030024F8B5164E34680CB132F03FFFF2
:1009F000012120460AF00CF8124D642120460AF02D
:100A000039F820460AF010F80F4F104C10493846BC
:100A1000D5E9003253430F4A27F0C8FF204627F09C
:100A2000A1FF2B68204623806B68E76063800A4B38
:100A300063610A4BE36227F0C7FF3060F8BD00BF77
:100A400070030024F01A0024080300242403002467
:100A500010F807D020F00FD0BD0800087508000876
:100A600038B50D4D0C46002029460AF003FC2B68D2
:100A70000A490B4A53B1B5F90830B5F9040013809F
:100A80006380012320800880A37338BD0988128801
:100A900021806280F8E700BF74030024A0030024D3
:100AA000A20300241FB54FF4F0724FF4887308219D
:100AB0000A4C0020CDE900230523CDE90213694645
:100AC0000AF050FB204628F057F8012320462370F7
:100AD000034B636028F060F804B010BD800300246D
:100AE000610A0008034B0360034B0B608023136013
:100AF000704700BFA4050024A403002438B50446B1
:100B000011F040FC0546204611F038FC072D02D1BB
:100B1000204632F063FD024B01221A6038BD00BF4F
:100B2000700A002438B5044611F02CFC0546204616
:100B300011F024FC072D04D12046BDE8384032F0E6
:100B4000ABBD38BD38B5044611F01CFC0546204647
:100B500011F014FC072D04D12046BDE8384032F0D6
:100B600055BD38BD38B5044611F00CFC054620468D
:100B700011F004FC072D04D12046BDE8384032F0C6
:100B8000D1BD38BD38B5044611F0FCFB0546204602
:100B900011F0F4FB072D04D12046BDE8384032F0B7
:100BA000E9BD38BD38B5044611F0ECFB05462046DA
:100BB00011F0E4FB072D04D12046BDE8384032F0A7
:100BC00001BE38BD38B5044611F0DCFB05462046B1
:100BD00011F0D4FB072D04D12046BDE8384032F097
:100BE00029BE38BD70B5054611F0CCFB0446284639
:100BF00011F0C4FB272C0AD1054840F6B8334FF456
:100C00007A7209210068BDE8704032F029BE70BDDB
:100C1000C40F002470B5054611F0B4FB0446284605
:100C200011F0ACFB082C09D1054800234FF4FA72EF
:100C300005210068BDE8704032F012BE70BD00BFF3
:100C4000DC0B002470B5054611F09CFB04462846D9
:100C500011F094FB072C09D1054800234FF4FA72D8
:100C600006210068BDE8704032F0FABD70BD00BFDB
:100C7000C40F002470B5054611F084FB04462846D5
:100C800011F07CFB072C09D1054800234FF4FA72C0
:100C900006210068BDE8704032F0E2BD70BD00BFC3
:100CA000DC0B002470B5054611F06CFB04462846A9
:100CB00011F064FB072C09D1054800234FF4FA72A8
:100CC00005210068BDE8704032F0CABD70BD00BFAC
:100CD000100C002470B5054611F054FB044628465C
:100CE00011F04CFB072C09D1054800234FF4FA7290
:100CF00006210068BDE8704032F0B2BD70BD00BF93
:100D0000140C002470B5054611F03CFB044628463F
:100D100011F034FB072C09D1054800234FF4FA7277
:100D200005210068BDE8704032F09ABD70BD00BF7B
:100D3000F40F002470B5054611F024FB0446284644
:100D400011F01CFB072C09D1054800234FF4FA725F
:100D500006210068BDE8704032F082BD70BD00BF62
:100D6000100C002470B5054611F00CFB0446284613
:100D700011F004FB072C09D1054800234FF4FA7247
:100D800005210068BDE8704032F06ABD70BD00BF4B
:100D9000D80B002470B5054611F0F4FA0446284635
:100DA00011F0ECFA072C09D1054800234FF4FA7230
:100DB00006210068BDE8704032F052BD70BD00BF32
:100DC000F40F002470B5054611F0DCFA04462846FD
:100DD00011F0D4FA072C09D1054800234FF4FA7218
:100DE00009210068BDE8704032F03ABD70BD00BF17
:100DF000C40F0024FFF7E6BF70B50020284D13F0A4
:100E00001FFC1021274C286013F05BFC28682DF094
:100E100025FD254920602DF02DFD206842F2D1717D
:100E200014F02AFB206842F2D17114F03DFB2068D7
:100E3000092114F0B9FB20684FF4004113F00CFCB9
:100E40002068102113F03DFC40F24C4120682EF048
:100E500027F9164C28682DF001FD154920602DF06A
:100E600009FD206842F2D17114F006FB206842F2BD
:100E7000D17114F019FB2068092114F095FB20684A
:100E80004FF4004113F0E8FB2068102113F019FC27
:100E9000002328681A460749BDE8704011F08ABA55
:100EA000C00F0024440C002428560808180C002405
:100EB0001C1B0708E50B00082DE9F0470020C94C72
:100EC00013F0BEFB1021C84D4FF0FF38206013F027
:100ED000F8FB20682DF0C2FCC44928602DF0CAFC44
:100EE000286842F2D17114F0C7FA286842F2D17131
:100EF000BF4E14F0D9FA28680921BE4F14F054FBF4
:100F000028684FF40041DFF8289313F0A5FB286808
:100F1000102113F0D6FB4FF42F7128682EF0C0F883
:100F2000B54D20682DF09AFCB44928602DF0A2FC44
:100F3000286842F2D17114F09FFA286842F2D17108
:100F400014F0B2FA2868772114F05BFA28686FF081
:100F50005F0114F06EFA2868092114F025FB286857
:100F60004FF4004113F078FB1021286813F0A9FB1F
:100F7000A34D20682DF072FC314628602DF07AFCDC
:100F8000286842F2D17114F077FA286842F2D171E0
:100F900014F08AFA2868802114F033FA28686FF078
:100FA0000D0114F046FA2868092114F0FDFA2868AA
:100FB0004FF4004113F050FB1021286813F081FB1F
:100FC000904D20682DF04AFC314628602DF052FCEF
:100FD000286842F2D17114F04FFA286842F2D171B8
:100FE00014F062FA2868812114F00BFA28686FF077
:100FF000330114F01EFA2868092114F0D5FA286884
:101000004FF4004113F028FB1021286813F059FB1E
:101010007D4D20682DF022FC314628602DF02AFC01
:10102000286842F2D17114F027FA286842F2D1718F
:1010300014F03AFA2868802114F0E3F9286818219E
:1010400014F0F7F92868092114F0AEFA28684FF473
:10105000004113F001FB1021286813F032FB6B4DA7
:1010600020682DF0FBFB314628602DF003FC28683A
:1010700042F2D17114F000FA286842F2D17114F0F2
:1010800013FA2868802114F0BCF928683E2114F076
:10109000D0F92868092114F087FA28684FF4004134
:1010A00013F0DAFA1021286813F00BFB584D206872
:1010B0002DF0D4FB314628602DF0DCFB286842F28D
:1010C000D17114F0D9F9286842F2D171514E14F05F
:1010D000EBF92868802114F094F92868642114F051
:1010E000A8F92868092114F05FFA28684FF4004134
:1010F00013F0B2FA1021286813F0E3FA464D206885
:101100002DF0ACFB454928602DF0B4FB286842F275
:10111000D17114F0B1F9286842F2D17114F0C4F918
:1011200028686FF06A0114F06CF928686FF01C01F0
:1011300014F07FF92868092114F036FA28684FF472
:10114000004113F089FA1021286813F0BAFA344DDF
:1011500020682DF083FB334928602DF08BFB286835
:1011600042F2D17114F088F9286842F2D17114F07A
:101170009BF928686FF0780114F043F928684E2134
:1011800014F057F92868092114F00EFA28684FF472
:10119000004113F061FA1021286813F092FA224DF1
:1011A00020682EF051FD42F2D171286014F064F9EC
:1011B000286842F2D17114F077F928686FF0BD0108
:1011C00014F01FF928684B2114F033F9286809211D
:1011D00014F0EAF9286815492EF042FD0022314644
:1011E00028E000BFC40F00241C0B0024EC260408D8
:1011F00048E50B08440E0024E40C0024C8960A08B5
:10120000700C00241C0C0024200C0024240C00244E
:10121000280C0024A01B0408300C00249827060882
:10122000340C0024B4D50808FC0C002470680308B2
:1012300079690308286817F02BFAC84D20682EF04A
:1012400003FD42F2D171286014F016F9286842F2C9
:10125000D17114F029F928686FF0610114F0D1F808
:1012600028684A2114F0E5F82868092114F09CF94F
:101270002868BB492EF0F4FC00223146286817F09C
:1012800007FAB84D20682EF0DFFC42F2D1712860D9
:1012900014F0F2F8286842F2D17114F005F92868C8
:1012A0006FF01D0114F0ADF828684A2114F0C1F860
:1012B0002868092114F078F92868AB492EF0D0FC91
:1012C00000223146286817F0E3F9A84D20682EF077
:1012D000BBFC42F2D171286014F0CEF8286842F2CB
:1012E000D17114F0E1F82868552114F08AF82868C3
:1012F0006FF05E0114F09DF82868092114F054F98C
:1013000028689B492EF0ACFC41462868002217F063
:10131000B3F928680022FF2117F0B4F9002295499B
:10132000286817F0B5F9944D20682EF08DFC42F234
:10133000D171286014F0A0F8286842F2D17114F03D
:10134000B3F82868B12114F05CF828686FF06401E4
:1013500014F06FF82868092114F026F928688749E5
:101360002EF07EFC41462868002217F085F9286897
:101370000022FF2117F086F900223146286817F075
:1013800087F97F4D20682EF05FFC42F2D171286012
:1013900014F072F8286842F2D17114F085F82868C8
:1013A000B02114F02EF828686FF0590114F041F8BC
:1013B0002868092114F0F8F8286872492EF050FCCA
:1013C00041462868002217F057F928680022FF21BB
:1013D00017F058F900223146286817F059F92068AB
:1013E0002EF032FC42F2D171386014F045F83868C2
:1013F00042F2D17114F058F838685121624E14F05D
:1014000000F838686FF03601604D14F012F8386853
:10141000092114F0C9F838685D492EF021FC3146E5
:101420003868002217F028F938680022FF2117F0E9
:1014300029F900222946386817F02AF9554F206803
:101440002EF002FC42F2D171386014F015F83868C1
:1014500042F2D17114F028F83868522113F0D1FF0C
:1014600038686FF0100113F0E4FF3868092114F0B8
:101470009BF8386848492EF0F3FB31463868002263
:1014800017F0FAF838680022FF2117F0FBF8002265
:101490002946386817F0FCF8404F20682EF0D4FB3E
:1014A00042F2D171386013F0E7FF386842F2D1712F
:1014B00013F0FAFF3868522113F0A3FF38681521A2
:1014C00013F0B7FF3868092114F06EF83868344912
:1014D0002EF0C6FB31463868002217F0CDF8386888
:1014E0000022FF2117F0CEF800222946386817F0B5
:1014F000CFF82C4F20682EF0A7FB42F2D171386054
:1015000013F0BAFF386842F2D17113F0CDFF38689A
:101510004E2113F076FF38683B2113F08AFF3868BC
:10152000092114F041F838681F492EF099FB314623
:101530003868002217F0A0F838680022FF2117F061
:10154000A1F800222946386817F0A2F8174F206842
:101550002EF07AFB42F2D1712AE000BFF80C002491
:101560007E680308240D00248C6803087C0D002489
:101570009668030840C803082C0E0024A5680308D9
:10158000400E0024B06803082E2E2EFF6C9B03082B
:10159000C06B03084C0E0024F8690308580E0024A1
:1015A000F96B03085C0E0024B6680308600E002483
:1015B000386013F061FF386842F2D17113F074FFA4
:1015C00038685E2113F01DFF3868622113F031FF87
:1015D0003868092113F0E8FF3868CA492EF040FB4B
:1015E00031463868002217F047F838680022FF219A
:1015F00017F048F800222946386817F049F8C24F1A
:1016000020682EF021FB42F2D171386013F034FFD4
:10161000386842F2D17113F047FF3868A32113F004
:10162000F0FE38686FF0360113F003FF38680921C7
:1016300013F0BAFF494638682EF012FB314638687D
:10164000002217F019F838680022FF2117F01AF865
:1016500000222946386817F01BF8AC4F20682EF09E
:10166000F3FA42F2D171386013F006FF386842F2A3
:10167000D17113F019FF3868D22113F0C2FE386817
:101680006FF0360113F0D5FE3868092113F08CFF96
:1016900038689F492EF0E4FA31463868002216F087
:1016A000EBFF38680022FF2116F0ECFF00222946EC
:1016B000386816F0EDFF974F20682EF0C5FA42F219
:1016C000D171386013F0D8FE386842F2D17113F04E
:1016D000EBFE3868A42113F094FE38686FF0100117
:1016E00013F0A7FE3868092113F05EFF49463868F9
:1016F0002EF0B6FA31463868002216F0BDFF386881
:101700000022FF2116F0BEFF00222946386816F09D
:10171000BFFF814F20682EF097FA42F2D1713860F6
:1017200013F0AAFE386842F2D17113F0BDFE38689A
:10173000D321DFF8109213F064FE38686FF01101C6
:1017400013F077FE3868092113F02EFF38687349CB
:101750002EF086FA31463868002216F08DFF386880
:101760000022FF2116F08EFF00222946386816F06D
:101770008FFF6B4F20682EF067FA42F2D17138600C
:1017800013F07AFE386842F2D17113F08DFE38689A
:10179000AB2113F036FE3868152113F04AFE386885
:1017A000092113F001FF38685E492EF059FA3868B4
:1017B00000225D4916F060FF38680022FF2116F014
:1017C00061FF00222946386816F062FF574F2068F3
:1017D0002EF03AFA42F2D171386013F04DFE3868BB
:1017E00042F2D17113F060FE3868952113F009FEC2
:1017F0003868392113F01DFE3868092113F0D4FE32
:1018000038684B492EF02CFA31463868002216F021
:1018100033FF38680022FF2116F034FF00222946EA
:10182000386816F035FF434F20682EF00DFA42F26B
:10183000D171386013F020FE386842F2D17113F094
:1018400033FE3868A52113F0DCFD3868612113F000
:10185000F0FD3868092113F0A7FE386836492EF0EC
:10186000FFF931463868002216F006FF386800227A
:10187000FF2116F007FF0022294638682F4D16F089
:1018800007FF20684FF07F472AF0E2FFB921286068
:1018900013F0F2FD2868272113F006FE28686FF088
:1018A0009A01274E13F0ADFD2868642113F0C1FDA5
:1018B0002868092113F078FE28684FF4007112F0AF
:1018C000CBFE2868102112F0FCFE41462868002259
:1018D00016F09CFE00222868114616F09CFE394640
:1018E0002868002216F09CFE00222868114616F097
:1018F0009CFE39462868002216F0A2FE00222868C5
:10190000114621E0BB680308640E0024680E002421
:10191000C66803086C0E0024700E0024CA68030811
:10192000780E0024D06803084D9D4AFF7C0E0024E9
:1019300025690308800E0024D7680308D40B00240F
:10194000F40C00242015070816F07FFE394628689D
:10195000002216F086FE00222868114616F086FE48
:1019600028682CF07BFF704930602CF083FF3068D2
:1019700042F2D17113F080FD306842F2D17113F060
:1019800093FD3068022113F03CFD3068072113F00D
:1019900050FD3068092113F007FE30684FF4004114
:1019A00012F05AFE1021306812F08BFE5F4E206854
:1019B0002CF054FF494630602CF05CFF306842F256
:1019C000D17113F059FD306842F2D17113F06CFD02
:1019D00030686FF0860113F014FD30684B2113F06E
:1019E00028FD3068092113F0DFFD30684FF4004115
:1019F00012F032FE1021306812F063FE4C4E206867
:101A00002CF02CFF494630602CF034FF306842F255
:101A1000D17113F031FD306842F2D17113F044FD01
:101A200030686FF0E10113F0ECFC30684B2113F0EB
:101A300000FD3068092113F0B7FD30684FF4004114
:101A400012F00AFE1021306812F03BFE2068394C7B
:101A50002AF0FEFE2321384E206013F00DFD206891
:101A6000202113F021FD2068DB2113F0CAFC20683F
:101A70006FF0600113F0DDFC2068092113F094FD84
:101A800020684FF4007112F0E7FD2068102112F079
:101A900018FE20680022642116F00CFE41462068E2
:101AA000002216F0B3FD00222068114616F0B3FDA7
:101AB00039462068002216F0D4FD00222068114625
:101AC00016F0D4FD20682CF0C9FE1C4930602CF0C3
:101AD000D1FE306842F2D17113F0CEFC306842F290
:101AE000D17113F0E1FC3068092113F05DFD30681D
:101AF0004FF4004112F0B0FD3068102112F0E1FD0A
:101B000030684FF4E1712DF0CBFA00230C491A46EE
:101B1000286810F04FFC002320681A460949BDE8E8
:101B2000F04710F047BC00BF30890908F00C0024D2
:101B3000EC0C0024A00F00244C0C002448080808DA
:101B4000FD0A0008150C00082DE9F14FC94D0020D1
:101B500012F076FD1021C84C286012F0B2FD286802
:101B60002CF07CFEC54920602CF084FE206842F2F7
:101B7000D17113F081FC206842F2D171C04E13F094
:101B800093FC20680921DFF8348313F00DFD2068F1
:101B90004FF40041BB4F12F05FFD20681021DFF8C9
:101BA00020B312F08EFD4FF42F7120682DF078FADB
:101BB000B54C28682CF052FEB44920602CF05AFE37
:101BC000206842F2D17113F057FC206842F2D171C3
:101BD000DFF8F0A213F068FC20680121DFF8E8923A
:101BE00013F00FFC20686FF0790113F022FC2068DD
:101BF000092113F0D9FC20684FF4004112F02CFDAC
:101C00002068102112F05DFD4FF4E17120682DF085
:101C100047FA9F4C28682EF017F842F2D1712060E5
:101C200013F02AFC206842F2D17113F03DFC2068C9
:101C3000022113F0E6FB20686FF0790113F0F9FB45
:101C40002068092113F0B0FC206892492EF008F8B2
:101C5000206800224FF0FF3116F00EFD20680022B0
:101C6000FF2116F00FFD00228B49206816F010FDB1
:101C70008A4C28682CF0F2FD314620602CF0FAFDE9
:101C8000206842F2D17113F0F7FB206842F2D17163
:101C900013F00AFC2068802113F0B3FB20686FF07A
:101CA000440113F0C6FB2068092113F07DFC206875
:101CB0004FF4004112F0D0FC1021206812F001FD19
:101CC000774C28682CF0CAFD314620602CF0D2FDFC
:101CD000206842F2D17113F0CFFB206842F2D1713B
:101CE00013F0E2FB2068802113F08BFB20686FF07B
:101CF0001E0113F09EFB2068092113F055FC20689B
:101D00004FF4004112F0A8FC1021206812F0D9FC19
:101D1000644C28682CF0A2FD314620602CF0AAFD0E
:101D2000206842F2D17113F0A7FB206842F2D17112
:101D300013F0BAFB2068802113F063FB20680721B1
:101D400013F077FB2068092113F02EFC20684FF474
:101D5000004112F081FC1021206812F0B2FC524CBC
:101D600028682CF07BFD314620602CF083FD206834
:101D700042F2D17113F080FB206842F2D17113F06E
:101D800093FB2068802113F03CFB20682D2113F089
:101D900050FB2068092113F007FC20684FF4004134
:101DA00012F05AFC1021206812F08BFC3F4C28687E
:101DB0002CF054FD314620602CF05CFD206842F28E
:101DC000D17113F059FB206842F2D17113F06CFB12
:101DD0002068802113F015FB2068532113F029FBA4
:101DE0002068092113F0E0FB20684FF4004112F055
:101DF00033FC1021206812F064FC2D4C28682CF074
:101E00002DFD314620602CF035FD206842F2D17165
:101E100013F032FB206842F2D171264E13F044FBDE
:101E20002068802113F0EDFA2068792113F001FB7E
:101E30002068092113F0B8FB20684FF4004112F02C
:101E40000BFC1021206812F03CFC28682DF0FCFEF1
:101E500042F2D171306013F00FFB306842F2D17161
:101E600013F022FB30684821134C13F0CAFA306893
:101E70002CE000BFDC0B0024200B0024EC2604081F
:101E800048E50B08C8170708D00C0024800E080886
:101E9000840E0024DF68030840C80308840B002474
:101EA000880B00248C0B00244C0B0024500B0024C6
:101EB000540B0024880E00246C9B03087A680308E6
:101EC0002969030820690308286903086FF047019E
:101ED00013F0AFFA3068092113F066FB3068CA4985
:101EE0002DF0BEFE00222146306816F0D1FBC74E11
:101EF00028682DF0A9FE42F2D171306013F0BCFACF
:101F0000306842F2D17113F0CFFA3068762113F0C5
:101F100078FA30686FF0470113F08BFA30680921C6
:101F200013F042FB414630682DF09AFE0022214614
:101F3000306816F0ADFBB64E28682CF08FFC3946A1
:101F400030602CF097FC306842F2D17113F094FAB3
:101F5000306842F2D17113F0A7FA30688E2113F085
:101F600050FA30686FF0480113F063FA30680921C5
:101F700013F01AFB30684FF4004112F06DFB30682B
:101F8000102112F09EFB4FF4FF7130682DF088F89D
:101F9000A04E28682DF058FE42F2D171306013F047
:101FA0006BFA306842F2D17113F07EFA3068AE21DC
:101FB00013F027FA30686FF0470113F03AFA3068EF
:101FC000092113F0F1FA306893492DF049FE0022FF
:101FD0002146306816F05CFB904E28682DF034FEE8
:101FE00042F2D171306013F047FA306842F2D17199
:101FF00013F05AFA3068D62113F003FA30686FF004
:10200000470113F016FA3068092113F0CDFA414662
:1020100030682DF025FE00222146306816F038FB8E
:102020007F4E28682DF010FE42F2D171306013F01F
:1020300023FA306842F2D17113F036FA30684B213E
:1020400013F0DFF930686FF0210113F0F2F9306816
:10205000092113F0A9FA306872492DF001FE00221F
:102060002146306816F014FB6F4E28682DF0ECFD09
:1020700042F2D171306013F0FFF9306842F2D17151
:1020800013F012FA3068762113F0BBF930686FF064
:10209000210113F0CEF93068092113F085FA414689
:1020A00030682DF0DDFD00222146306816F0F0FA90
:1020B0005E4E28682CF0D2FB394630602CF0DAFBFB
:1020C000306842F2D17113F0D7F9306842F2D17121
:1020D00013F0EAF930688E2113F093F930686FF04D
:1020E000220113F0A6F93068092113F05DFA306877
:1020F0004FF4004112F0B0FA3068102112F0E1FA0A
:102100004FF4FF7130682CF0CBFF494E28682DF05A
:102110009BFD42F2D171306013F0AEF9306842F2AB
:10212000D17113F0C1F93068B52113F06AF9306844
:102130006FF0210113F07DF93068092113F034FAB2
:1021400030683C492DF08CFD00222146306816F0A5
:102150009FFA394E28682DF077FD42F2D171306038
:1021600013F08AF9306842F2D17113F09DF93068AA
:10217000E02113F046F930686FF0210113F059F9AE
:102180003068092113F010FA414630682DF068FDDF
:1021900000222146306816F07BFA284E28682DF080
:1021A00053FD42F2D171306013F066F9306842F2AB
:1021B000D17113F079F93068482113F022F93068B1
:1021C000042113F036F93068092113F0EDF9306875
:1021D0001B492DF045FD00222146306816F058FAC3
:1021E000184E28682DF030FD42F2D171306013F0A6
:1021F00043F9306842F2D17113F056F93068762114
:1022000013F0FFF820E000BF0B6A0308500D002414
:102210009C0C00248C0E00243B6A0308900E0024C2
:10222000940E0024F9680308980E0024C40C0024BE
:102230009C0E002405690308A40E0024A80E0024A7
:1022400011690308AC0E00243068042113F0F1F882
:102250003068092113F0A8F9414630682DF000FDDF
:1022600000222146306816F013FAC84E28682DF077
:10227000EBFC42F2D171306013F0FEF8306842F2AC
:10228000D17113F011F930684121DFF8408313F068
:10229000B8F83068232113F0CCF83068092113F026
:1022A00083F93068BA492DF0DBFC00222146306802
:1022B00016F0EEF9B74E28682DF0C6FC42F2D17147
:1022C000306013F0D9F8306842F2D17113F0ECF8B5
:1022D0003068412113F095F83068332113F0A9F8E4
:1022E0003068092113F060F93068AB492DF0B8FC73
:1022F00000222146306816F0CBF9A84E28682DF050
:10230000A3FC42F2D171306013F0B6F8306842F2AB
:10231000D17113F0C9F83068432113F072F83068B6
:10232000272113F086F83068092113F03DF959464A
:1023300030682DF095FC00222146306816F0A8F98F
:10234000974E28682DF080FC42F2D171306013F076
:1023500093F8306842F2D17113F0A6F83068582132
:1023600013F04FF830682B2113F063F8306809211F
:1023700013F01AF9514630682DF072FC0022214604
:10238000306816F085F9874E28682DF05DFC42F222
:10239000D171306013F070F8306842F2D17113F0EF
:1023A00083F83068702113F02CF83068232113F083
:1023B00040F83068092113F0F7F8414630682DF0F5
:1023C0004FFC00222146306816F062F9764E2868EC
:1023D0002DF03AFC42F2D171306013F04DF83068C4
:1023E00042F2D17113F060F83068712113F009F8EE
:1023F0003068272113F01DF83068092113F0D4F854
:10240000494630682DF02CFC00222146306816F039
:102410003FF9664E28682DF017FC42F2D17130600A
:1024200013F02AF8306842F2D17113F03DF83068A9
:10243000702112F0E6FF3068332112F0FAFF3068A5
:10244000092113F0B1F8414630682DF009FC002253
:102450002146306816F01CF9554E28682CF0FEF91C
:10246000394630602CF006FA306842F2D17113F030
:1024700003F8306842F2D17113F016F830688E21FB
:1024800012F0BFFF3068282112F0D3FF3068092115
:1024900013F08AF830684FF4004112F0DDF830682C
:1024A000102112F00EF94FF4FF7130682CF0F8FD96
:1024B000404E28682DF0C8FB42F2D171306012F016
:1024C000DBFF306842F2D17112F0EEFF3068A421D8
:1024D00012F097FF3068232112F0ABFF306809211A
:1024E00013F062F8306834492DF0BAFB002221461F
:1024F000306816F0CDF8314E28682DF0A5FB42F279
:10250000D171306012F0B8FF306842F2D17112F030
:10251000CBFF3068A42112F074FF3068272112F03D
:1025200088FF3068092113F03FF8594630682DF0D4
:1025300097FB00222146306816F0AAF8204E286842
:102540002DF082FB42F2D171306012F095FF3068BD
:1025500042F2D17112F0A8FF3068A421DFF870B008
:1025600012F04FFF3068332112F063FF3068092109
:1025700013F01AF8306813492DF072FB002221463F
:10258000306816F085F8104E286823E0B00E00245D
:1025900019690308B80E00241D690308BC0E002445
:1025A000B40E0024C00E0024C40E0024C80E002463
:1025B000E00C0024D00E002430690308D40E00245F
:1025C000D80E002434690308DC0E002422690308B5
:1025D000696903082DF038FB42F2D171306012F0C6
:1025E0004BFF306842F2D17112F05EFF3068B921C2
:1025F00012F007FF30682B2112F01BFF3068092111
:1026000012F0D2FF514630682DF02AFB00222146FD
:10261000306816F03DF8C94E28682DF015FB42F2DF
:10262000D171306012F028FF306842F2D17112F09F
:102630003BFF3068D021DFF840A312F0E2FE3068A3
:10264000232112F0F6FE3068092112F0ADFF414659
:1026500030682DF005FB00222146306816F018F88E
:10266000B74E28682DF0F0FA42F2D171306012F0C6
:1026700003FF306842F2D17112F016FF3068D121A9
:1026800012F0BFFE3068272112F0D3FE3068092116
:1026900012F08AFF494630682DF0E2FA0022214606
:1026A000306815F0F5FFA74E28682DF0CDFA42F2FC
:1026B000D171306012F0E0FE306842F2D17112F058
:1026C000F3FE3068D021DFF8B49212F09AFE306841
:1026D000332112F0AEFE3068092112F065FF414649
:1026E00030682DF0BDFA00222146306815F0D0FF89
:1026F000954E28682DF0A8FA42F2D171306012F0A0
:10270000BBFE306842F2D17112F0CEFE3068442137
:1027100012F077FE3068502112F08BFE30680921EC
:1027200012F042FF306889492DF09AFA00222146C2
:10273000306815F0ADFF864E28682DF085FA42F21C
:10274000D171306012F098FE306842F2D17112F00F
:10275000ABFE3068702112F054FE30684F2112F049
:1027600068FE3068092112F01FFF414630682DF0E5
:1027700077FA00222146306815F08AFF754E2868E6
:102780002CF06CF8394630602CF074F8306842F266
:10279000D17112F071FE306842F2D17112F084FEF4
:1027A00030688E2112F02DFE30684F2112F041FE6C
:1027B0003068092112F0F8FE30684FF4004111F042
:1027C0004BFF3068102111F07CFF4FF4FF7130682F
:1027D0002CF066FC604E28682DF036FA42F2D1717A
:1027E000306012F049FE306842F2D17112F05CFEA6
:1027F0003068AA2112F005FE3068502112F019FE4F
:102800003068092112F0D0FE306854492DF028FAC2
:1028100000222146306815F03BFF514E28682DF00C
:1028200013FA42F2D171306012F026FE306842F2A3
:10283000D17112F039FE3068D02112F0E2FD30681B
:102840004F2112F0F6FD3068092112F0ADFE41462D
:1028500030682DF005FA00222146306815F018FF87
:10286000404E28682BF0FAFF394630602CF002F811
:10287000306842F2D17112F0FFFD306842F2D1713E
:10288000394F12F011FE30688E21DFF8F48012F01B
:10289000B8FD3068742112F0CCFD3068092112F0C7
:1028A00083FE30684FF4004111F0D6FE30681021ED
:1028B00011F007FF4FF4FF7130682CF0F1FB2B4E45
:1028C00028682DF0C1F942F2D171306012F0D4FDC8
:1028D000306842F2D17112F0E7FD3068422112F007
:1028E00090FD3068752112F0A4FD3068092112F0C6
:1028F0005BFE30681E492DF0B3F900222146306896
:1029000015F0C6FE1B4E28682DF09EF942F2D171DB
:10291000306012F0B1FD306842F2D17112F0C4FDA6
:102920003068732112F06DFD3068752112F081FD61
:102930003068092112F038FE394623E0E00E002409
:10294000E40E0024E80E0024EC0E0024376903088E
:10295000F00E0024E80C0024F40E00244369030860
:10296000FC0E00242C0C002455690308000F0024E1
:102970004F690308040F0024CE6D0308A01B040850
:10298000896A030830682DF06BF90022214630680F
:1029900015F07EFEC84E28682DF056F942F2D1712E
:1029A000306012F069FD306842F2D17112F07CFDA6
:1029B0003068A92112F025FD3068752112F039FD2B
:1029C0003068092112F0F0FD3068BC492DF048F95B
:1029D00000222146306815F05BFEB94E28682DF0C4
:1029E00033F942F2D171306012F046FD306842F2A4
:1029F000D17112F059FD3068D32112F002FD306818
:102A0000752112F016FD3068092112F0CDFD39460E
:102A10003068AC4F2DF024F900222146306815F0C3
:102A200037FEA94E28682BF019FF394630602BF08D
:102A300021FF306842F2D17112F01EFD306842F27F
:102A4000D17112F031FD30686FF0850112F0D9FCC0
:102A500030686FF0440112F0ECFC3068092112F08C
:102A6000A3FD30684FF4004111F0F6FD10213068ED
:102A700011F027FE954E28682BF0F0FE39463060A5
:102A80002BF0F8FE306842F2D17112F0F5FC30689C
:102A900042F2D17112F008FD30686FF0810112F03E
:102AA000B0FC30686FF01E0112F0C3FC30680921E1
:102AB00012F07AFD30684FF4004111F0CDFD102185
:102AC000306811F0FEFD824E28682BF0C7FE3946B3
:102AD00030602BF0CFFE306842F2D17112F0CCFCA6
:102AE000306842F2D17112F0DFFC30686FF0810182
:102AF00012F087FC3068082112F09BFC3068092135
:102B000012F052FD30684FF4004111F0A5FD102184
:102B1000306811F0D6FD6F4E28682BF09FFE3946C5
:102B200030602BF0A7FE306842F2D17112F0A4FCA5
:102B3000306842F2D17112F0B7FC30686FF0810159
:102B400012F05FFC30682F2112F073FC306809210D
:102B500012F02AFD30684FF4004111F07DFD102184
:102B6000306811F0AEFD5C4E28682BF077FE3946D8
:102B700030602BF07FFE306842F2D17112F07CFCA5
:102B8000306842F2D17112F08FFC30686FF0810131
:102B900012F037FC3068552112F04BFC30680921E7
:102BA00012F002FD30684FF4004111F055FD102184
:102BB000306811F086FD494E28682BF04FFE3946EB
:102BC00030602BF057FE306842F2D17112F054FCA5
:102BD000306842F2D171424F12F066FC30686FF0FB
:102BE000810112F00EFC30687C2112F022FC30686A
:102BF000092112F0D9FC30684FF4004111F02CFD8E
:102C00001021306811F05DFD364E28682DF01CF85B
:102C100042F2D171306012F02FFC306842F2D17173
:102C200012F042FC30686FF0C60112F0EAFB306827
:102C30006FF0470112F0FDFB3068092112F0B4FC7F
:102C4000306829492DF00CF800222146306815F033
:102C50001FFD2868254D2CF0F7FF42F2D171244E5C
:102C6000286012F009FC286842F2D17112F01CFCB5
:102C700028686FF06D0112F0C4FB28686FF04701FF
:102C800012F0D7FB2868092112F08EFC2868194938
:102C90002CF0E6FF2868184D0022214615F0F8FCBC
:102CA00028682CF0D1FF42F2D171306012F0E4FBC1
:102CB000306842F2D17121E0080F00245C690308FA
:102CC0000C0F0024FC340B083C0C0024380C0024AE
:102CD000480C0024500C0024540C0024580C0024F0
:102CE0007A690308100F0024C06B0308140F002436
:102CF0001C0F002462690308DC0B002412F0D4FBD3
:102D000030686FF0D70112F07CFB30686FF01F0164
:102D100012F08FFB3068092112F046FC51463068F2
:102D20002CF09EFF00222146306815F0B1FCCB4EFE
:102D300028682CF089FF42F2D171306012F09CFBC0
:102D4000306842F2D17112F0AFFB30686FF0D00101
:102D500012F057FB30686FF01C0112F06AFB30680C
:102D6000092112F021FC3068BD492CF079FF0022C6
:102D70004946306815F08CFCBA4E28682CF064FF88
:102D800042F2D171306012F077FB306842F2D171BB
:102D900012F08AFB30686FF0C90112F032FB306824
:102DA0006FF01F0112F045FB3068092112F0FCFBA7
:102DB000414630682CF054FF00222146306815F05F
:102DC00067FCA94E28682CF03FFF42F2D1713060B9
:102DD00012F052FB306842F2D17112F065FB30689C
:102DE0006FF0B60112F00DFB30686FF01F0112F0AA
:102DF00020FB3068092112F0D7FB394630682CF0EF
:102E00002FFF00222146306815F042FC974E2868BB
:102E10002CF01AFF42F2D171306012F02DFB3068B5
:102E200042F2D17112F040FB30686FF0A20112F053
:102E3000E8FA30686FF01F0112F0FBFA30680921E0
:102E400012F0B2FB594630682CF00AFF00222146EE
:102E5000306815F01DFC864E28682CF0F5FE42F215
:102E6000D171306012F008FB306842F2D17112F07B
:102E70001BFB30686FF0990112F0C3FA30686FF0F5
:102E80001F0112F0D6FA3068092112F08DFB51466D
:102E900030682CF0E5FE00222146306815F0F8FB82
:102EA000744E28682CF0D0FE42F2D171306012F0DE
:102EB000E3FA306842F2D17112F0F6FA30686FF03E
:102EC000930112F09EFA30686FF01C0112F0B1FA13
:102ED0003068092112F068FB306867492CF0C0FEA9
:102EE00000224946306815F0D3FB644E28682CF068
:102EF000ABFE42F2D171306012F0BEFA306842F29D
:102F0000D17112F0D1FA30686FF08B0112F079FABA
:102F100030686FF01F0112F08CFA3068092112F04E
:102F200043FB414630682CF09BFE0022214630686E
:102F300015F0AEFB524E28682CF086FE42F2D1719D
:102F4000306012F099FA306842F2D17112F0ACFAA6
:102F500030686FF0780112F054FA30686FF01F019A
:102F600012F067FA3068092112F01EFB394630680A
:102F70002CF076FE00222146306815F089FB414E88
:102F800028682CF061FE42F2D171306012F074FAC0
:102F9000306842F2D17112F087FA30686FF0640144
:102FA00012F02FFA30686FF01F0112F042FA306809
:102FB000092112F0F9FA594630682CF051FE00222E
:102FC0002146306815F064FB2F4E28682CF03CFE3B
:102FD00042F2D171306012F04FFA306842F2D17192
:102FE00012F062FA30686FF05B0112F00AFA306892
:102FF0006FF01F0112F01DFA3068092112F0D4FAA7
:10300000514630682CF02CFE00222146306815F025
:103010003FFB1E4E28682CF017FE42F2D171306043
:1030200012F02AFA306842F2D17112F03DFA30689B
:103030006FF05401DFF85CA012F0E3F930686FF034
:103040001C0112F0F6F93068092112F0ADFA30686F
:103050000F492CF005FE002249461DE0200F0024F8
:10306000836D0308280F00242C0F0024300F002448
:10307000340F0024380F0024FB6D03083C0F00249C
:10308000400F0024440F0024480F00244C0F00245C
:10309000DD6D0308EC6D0308306815F0F9FAC94ED0
:1030A00028682CF0D1FD42F2D171306012F0E4F9C1
:1030B000306842F2D17112F0F7F930686FF04C01CC
:1030C00012F09FF930686FF01F0112F0B2F930680A
:1030D000092112F069FA414630682CF0C1FD002246
:1030E0002146306815F0D4FAB74E28682CF0ACFDB4
:1030F00042F2D171306012F0BFF9306842F2D17102
:1031000012F0D2F930686FF0390112F07AF93068B4
:103110006FF01F0112F08DF93068092112F044FAA6
:10312000394630682CF09CFD00222146306815F0AD
:10313000AFFAA64E28682CF087FD42F2D1713060BC
:1031400012F09AF9306842F2D17112F0ADF930689C
:103150006FF0B2019E4F12F054F93068062112F060
:1031600068F93068092112F01FFA306899492CF08B
:1031700077FD00222146306815F08AFA964E2868BD
:103180002CF062FD42F2D171306012F075F93068B6
:1031900042F2D17112F088F930686FF06A0112F0D2
:1031A00030F93068062112F044F93068092112F034
:1031B000FBF9306889492CF053FD00222146306824
:1031C00015F066FA864E28682CF03EFD42F2D17169
:1031D000306012F051F9306842F2D17112F064F9A6
:1031E00030686FF0C10112F00CF930682C2112F038
:1031F00020F93068092112F0D7F9306879492CF0AC
:103200002FFD00222146306815F042FA764E2868DC
:103210002CF01AFD42F2D171306012F02DF93068B5
:1032200042F2D17112F040F930686FF0420112F0B1
:10323000E8F83068062112F0FCF83068092112F035
:10324000B3F9306869492CF00BFD00222146306843
:1032500015F01EFA664E28682CF0F6FC42F2D17189
:10326000306012F009F9306842F2D17112F01CF9A5
:1032700030686FF0750112F0C4F830682C2112F03C
:10328000D8F83068092112F08FF9394630682CF0EF
:10329000E7FC00222146306815F0FAF9554E2868FF
:1032A0002CF0D2FC42F2D171306012F0E5F83068B7
:1032B00042F2D17112F0F8F830686FF0590112F053
:1032C000A0F830682C2112F0B4F83068092112F00F
:1032D0006BF9306848492CF0C3FC00222146306865
:1032E00015F0D6F9454E28682CF0AEFC42F2D171AB
:1032F000306012F0C1F8306842F2D17112F0D4F8A7
:1033000030686FF0D60112F07CF83068532112F06B
:1033100090F83068092112F047F9514630682CF0D6
:103320009FFC00222146306815F0B2F9344E28681F
:103330002CF08AFC42F2D171306012F09DF83068B6
:1033400042F2D17112F0B0F830686FF0CA0112F099
:1033500058F83068532112F06CF83068092112F0E7
:1033600023F9414630682CF07BFC0022214630686E
:1033700015F08EF9234E28682CF066FC42F2D171CC
:10338000306012F079F8306842F2D17112F08CF8A6
:1033900030686FF0B60112F034F83068532112F043
:1033A00048F83068092112F0FFF8394630682CF0EF
:1033B00057FC00222146306815F06AF9124E286841
:1033C00024E000BF540F0024580F0024180F0024DD
:1033D0007B6903086B6903085C0F002478690308A4
:1033E000600F00247F690308640F0024C668030887
:1033F000680F00246C0F002487690308700F0024F5
:10340000740F0024780F0024800F00242CF01CFC83
:1034100042F2D171306012F02FF8306842F2D1716F
:1034200012F042F830686FF0A20111F0EAFF306844
:10343000532111F0FEFF3068092112F0B5F859460A
:1034400030682CF00DFC00222146306815F020F980
:10345000C84E28682CF0F8FB42F2D171306012F0AF
:103460000BF8306842F2D17112F01EF830686FF03C
:10347000990111F0C6FF3068532111F0DAFF30686E
:10348000092112F091F8514630682CF0E9FB002236
:103490002146306815F0FCF8B74E28682CF0D4FBB4
:1034A00042F2D171306011F0E7FF306842F2D17121
:1034B00011F0FAFF30686FF08B0111F0A2FF306855
:1034C000532111F0B6FF3068092112F06DF8414622
:1034D00030682CF0C5FB00222146306815F0D8F882
:1034E000A64E28682CF0B0FB42F2D171306011F08A
:1034F000C3FF306842F2D17111F0D6FF30686FF02F
:10350000780111F07EFF3068532111F092FF30688E
:10351000092112F049F8394630682CF0A1FB00224D
:103520002146306815F0B4F82868954D2CF08CFBD6
:1035300042F2D171934E286011F09EFF286842F24A
:10354000D17111F0B1FF28686FF0D00111F059FF6F
:103550002868562111F06DFF2868092112F024F81F
:10356000286889492CF07CFB00224946286815F020
:103570008FF8864D30682CF067FB42F2D1712860DD
:1035800011F07AFF286842F2D17111F08DFF28689E
:103590006FF0930111F035FF2868562111F049FFB3
:1035A0002868092112F000F8286879492CF058FBA6
:1035B00000224946286815F06BF8764D30682CF0EB
:1035C00043FB42F2D171286011F056FF286842F2A5
:1035D000D17111F069FF28686FF0640111F011FFDB
:1035E0002868532111F025FF2868092111F0DCFF1C
:1035F000594628682CF034FB00222146286815F033
:1036000047F8654D30682CF01FFB42F2D1712860FD
:1036100011F032FF286842F2D17111F045FF28689D
:103620006FF05B0111F0EDFE2868532111F001FFEE
:103630002868092111F0B8FF514628682CF010FBCA
:1036400000222146286815F023F8544D30682CF0EC
:10365000FBFA42F2D171286011F00EFF286842F2A5
:10366000D17111F021FF28686FF0540111F0C9FEEB
:103670002868552111F0DDFE2868092111F094FF1A
:10368000286847492CF0ECFA00224946286814F0D3
:10369000FFFF444D30682CF0D7FA42F2D171286018
:1036A00011F0EAFE286842F2D17111F0FDFE28689F
:1036B0006FF04C0111F0A5FE2868532111F0B9FEFE
:1036C0002868092111F070FF414628684FF07F48B3
:1036D0002CF0C6FA00222146286814F0D9FF324D9A
:1036E00030682CF0B1FA42F2D171286011F0C4FEBA
:1036F000286842F2D17111F0D7FE28686FF03901C5
:1037000011F07FFE2868532111F093FE28680921EB
:1037100011F04AFF394628684FF0FF372CF0A0FA25
:1037200000222146286814F0B3FF204D30682CF0A9
:103730008BFA42F2D171286011F09EFE286842F2A5
:10374000D17111F0B1FE28686FF0BA0111F059FE85
:103750002868782111F06DFE2868092111F024FFF6
:10376000286813492CF07CFA00222146286814F0BE
:103770008FFF1FE0840F0024880F00248C0F00248B
:10378000900F0024DC0B0024836D0308940F0024A9
:10379000FB6D0308980F00249C0F0024000D0024EB
:1037A000DD6D0308040D0024080D00240C0D002419
:1037B0008B690308A04D30682CF046FA42F2D171B3
:1037C000286011F059FE286842F2D17111F06CFEA8
:1037D00028686FF0740111F014FE2868782111F048
:1037E00028FE2868092111F0DFFE286893492CF093
:1037F00037FA00222146286814F04AFF904D3068BD
:103800002CF022FA42F2D171286011F035FE2868BE
:1038100042F2D17111F048FE28686FF05D0111F09D
:10382000F0FD2868782111F004FE2868092111F0C4
:10383000BBFE286883492CF013FA00222146286831
:1038400014F026FF804D30682CF0FEF942F2D17161
:10385000286011F011FE286842F2D17111F024FEA7
:1038600028686FF0420111F0CCFD28686FF0470125
:1038700011F0DFFD2868092111F096FE28687349D0
:103880002CF0EEF900222146286814F001FF704D5B
:10389000306828F0DDFF2221286011F0EDFD286856
:1038A000212111F001FE28686FF0C201694C11F06E
:1038B000A8FD28686FF0700111F0BBFD2868092190
:1038C00011F072FE28684FF4007110F0C5FE2868F0
:1038D000102110F0F6FE39462868002214F096FEFA
:1038E00000222868114614F096FE414628680022FE
:1038F00014F0B7FE00222868114614F0B7FE2868BD
:103900002AF0ACFF544920602AF0B4FF206842F24C
:10391000D17111F0B1FD206842F2D17111F0C4FDF6
:103920003946206811F06DFD2068002111F081FDFD
:103930002068092111F038FE20684FF4004110F092
:103940008BFE2068102110F0BCFE4FF4E17120685E
:103950002BF0A6FB414C306828F07AFF2221206032
:1039600011F08AFD2068212111F09EFD2068C921F7
:103970003B4E11F046FD20686FF0710111F059FDCA
:103980002068092111F010FE20684FF4007110F03A
:1039900063FE2068102110F094FE39462068002252
:1039A00014F034FE00222068114614F034FE414623
:1039B0002068002214F055FE00222068114614F001
:1039C00055FE20682AF04AFF264930602AF052FF4F
:1039D000306842F2D17111F04FFD306842F2D1717E
:1039E00011F062FD3946306811F00BFD306800219E
:1039F00011F01FFD3068092111F0D6FD30684FF439
:103A0000004110F029FE3068102110F05AFE306895
:103A10004FF4E1712BF044FB002313491A46286848
:103A20000EF0C8FC002311491A46206801B0BDE819
:103A3000F04F0EF0BFBC00BF100D002464690308F6
:103A4000140D002495690308580D0024C668030866
:103A5000340B0024AC0C0024D0230408A40F002451
:103A6000B00C0024640B0808450C0008A987000866
:103A70002DE9F14FC94C002010F0E2FD1021C84D96
:103A8000206010F01EFE20682AF0E8FEC54928607C
:103A90002AF0F0FE286842F2D17111F0EDFC28689E
:103AA00042F2D171C04E11F0FFFC28680921BF4FCE
:103AB00011F07AFD28684FF40041DFF8288310F0F8
:103AC000CBFD28681021DFF820B310F0FAFD4FF489
:103AD0002F7128682BF0E4FAB54D20682AF0BEFE5D
:103AE000B44928602AF0C6FE286842F2D17111F06C
:103AF000C3FC286842F2D171DFF8F0A211F0D4FCC7
:103B000028680121DFF8E89211F07BFC28686FF04B
:103B1000790111F08EFC2868092111F045FD286813
:103B20004FF4004110F098FD2868102110F0C9FDF5
:103B30004FF4E17128682BF0B3FA9F4D20682CF008
:103B400083F842F2D171286011F096FC286842F2A5
:103B5000D17111F0A9FC2868012111F052FC2868EC
:103B60006FF0790111F065FC2868092111F01CFD46
:103B7000286892492CF074F8286800224FF0FF3131
:103B800014F07AFD28680022FF2114F07BFD00224A
:103B90008B49286814F07CFD8A4D20682AF05EFE6F
:103BA000314628602AF066FE286842F2D17111F091
:103BB00063FC286842F2D17111F076FC28688021FC
:103BC00011F01FFC28686FF0440111F032FC2868E6
:103BD000092111F0E9FC28684FF4004110F03CFD88
:103BE0001021286810F06DFD774D20682AF036FE10
:103BF000314628602AF03EFE286842F2D17111F069
:103C00003BFC286842F2D17111F04EFC28688021FB
:103C100011F0F7FB28686FF01E0111F00AFC28680C
:103C2000092111F0C1FC28684FF4004110F014FD87
:103C30001021286810F045FD644D20682AF00EFE22
:103C4000314628602AF016FE286842F2D17111F040
:103C500013FC286842F2D17111F026FC28688021FB
:103C600011F0CFFB2868072111F0E3FB2868092138
:103C700011F09AFC28684FF4004110F0EDFC10217F
:103C8000286810F01EFD524D20682AF0E7FD3146ED
:103C900028602AF0EFFD286842F2D17111F0ECFBA8
:103CA000286842F2D17111F0FFFB2868802111F0E1
:103CB000A8FB28682D2111F0BCFB2868092111F010
:103CC00073FC28684FF4004110F0C6FC10212868EE
:103CD00010F0F7FC3F4D20682AF0C0FD3146286007
:103CE0002AF0C8FD286842F2D17111F0C5FB28689E
:103CF00042F2D17111F0D8FB2868802111F081FBCC
:103D00002868532111F095FB2868092111F04CFC1B
:103D100028684FF4004110F09FFC1021286810F033
:103D2000D0FC2D4D20682AF099FD314628602AF0FC
:103D3000A1FD286842F2D17111F09EFB286842F281
:103D4000D171264E11F0B0FB2868802111F059FB8B
:103D50002868792111F06DFB2868092111F024FCF5
:103D600028684FF4004110F077FC1021286810F00B
:103D7000A8FC20682BF068FF42F2D171306011F08E
:103D80007BFB306842F2D17111F08EFB3068592113
:103D9000134D11F036FB30682CE000BF140C0024EA
:103DA000240B0024EC26040848E50B08FC340B081F
:103DB0005C0C0024800E0808180D00249869030884
:103DC00040C80308480B0024700B0024740B002427
:103DD000780B00247C0B0024800B00241C0D002495
:103DE0006C9B0308136A0308808080FFA01B0408F3
:103DF000D40F00246FF0470111F01BFB306809213C
:103E000011F0D2FB3068C7492BF02AFF0022294667
:103E1000306814F03DFCC44E20682BF015FF42F2D0
:103E2000D171306011F028FB306842F2D17111F08D
:103E30003BFB3068AD2111F0E4FA30686FF04701C8
:103E400011F0F7FA3068092111F0AEFB3068B7497C
:103E50002BF006FF00222946306814F019FCB44EFE
:103E600020682BF0F1FE42F2D171306011F004FBBA
:103E7000306842F2D17111F017FB3068522111F015
:103E8000C0FA30686FF0210111F0D3FA30680921CF
:103E900011F08AFB3068A7492BF0E2FE0022294688
:103EA000306814F0F5FBA44E20682BF0CDFE42F2F2
:103EB000D171306011F0E0FA306842F2D17111F046
:103EC000F3FA3068612111F09CFA3068042111F096
:103ED000B0FA3068092111F067FB306897492BF080
:103EE000BFFE00222946306814F0D2FB944E2068B1
:103EF0002BF0AAFE42F2D171306011F0BDFA3068A9
:103F000042F2D17111F0D0FA30685E2111F079FAE5
:103F100030682A2111F08DFA3068092111F044FB34
:103F2000306888492BF09CFE00222946306814F046
:103F3000AFFB854E20682BF087FE42F2D1713060D6
:103F400011F09AFA306842F2D17111F0ADFA30688E
:103F5000592111F056FA3068502111F06AFA306890
:103F6000092111F021FB306878492BF079FE0022FD
:103F70002946306814F08CFB754E20682BF064FEE7
:103F800042F2D171306011F077FA306842F2D171AB
:103F900011F08AFA3068A42111F033FA3068502108
:103FA00011F047FA3068092111F0FEFA30686949CA
:103FB0002BF056FE00222946306814F069FB664E4D
:103FC00020682BF041FE42F2D171306011F054FABA
:103FD000306842F2D17111F067FA30685B2111F05C
:103FE00010FA3068752111F024FA3068092111F0B7
:103FF000DBFA306859492BF033FE0022294630683D
:1040000014F046FB564E20682BF01EFE42F2D17192
:10401000306011F031FA306842F2D17111F044FA97
:104020003068AA2111F0EDF93068752111F001FA1C
:104030003068092111F0B8FA30684A492BF010FEB7
:1040400000222946306814F023FB474E20682AF0EE
:1040500005FC394630602AF00DFC306842F2D1711F
:1040600011F00AFA306842F2D17111F01DFA30688D
:104070006FF0850111F0C5F930686FF0440111F05F
:10408000D8F93068092111F08FFA30684FF40041F7
:1040900010F0E2FA1021306810F013FB334E206864
:1040A0002AF0DCFB394630602AF0E4FB306842F24B
:1040B000D17111F0E1F9306842F2D17111F0F4F9E7
:1040C00030686FF0810111F09CF93068082111F01F
:1040D000B0F93068092111F067FA30684FF40041F7
:1040E00010F0BAFA1021306810F0EBFA204E206878
:1040F0002AF0B4FB394630602AF0BCFB306842F24B
:10410000D17111F0B9F9306842F2D17111F0CCF9E6
:1041100030686FF0810111F074F930682F2111F0CF
:1041200088F927E0AE690308280D002455690308C3
:10413000300D0024BC690308400D0024C769030842
:10414000480D0024D7690308880D0024E669030898
:10415000900D0024016A0308980D0024F2690308F9
:10416000A00D0024FF690308780C0024800C0024B3
:10417000840C00243068092111F016FA30684FF4DD
:10418000004110F069FA1021306810F09AFAC94E17
:1041900020682AF063FB394630602AF06BFB3068F8
:1041A00042F2D17111F068F9306842F2D17111F028
:1041B0007BF930686FF0810111F023F930685521E7
:1041C00011F037F93068092111F0EEF930684FF439
:1041D000004110F041FA1021306810F072FAB64E2A
:1041E00020682AF03BFB394630602AF043FB3068F8
:1041F00042F2D17111F040F9306842F2D17111F000
:1042000053F930686FF0810111F0FBF830687C21C0
:1042100011F00FF93068092111F0C6F930684FF438
:10422000004110F019FA1021306810F04AFAA34E3C
:1042300020682BF009FD42F2D171306011F01CF9B9
:10424000306842F2D17111F02FF930686FF0B3018C
:1042500011F0D7F830686FF0470111F0EAF83068D4
:10426000092111F0A1F9306895492BF0F9FC0022E1
:104270002946306814F00CFA924E20682BF0E4FCCA
:1042800042F2D171306011F0F7F8306842F2D1712A
:1042900011F00AF930686FF03B0111F0B2F83068A4
:1042A0006FF0460111F0C5F83068092111F07CF972
:1042B000414630682BF0D4FC59463068002214F097
:1042C000DBF930680022FF2114F0DCF900225146AE
:1042D000306814F0DDF97C4E20682BF0B5FC42F21A
:1042E000D171306011F0C8F8306842F2D17111F02C
:1042F000DBF830686FF0C20111F083F830680721F5
:1043000011F097F83068092111F04EF930686F49C3
:104310002BF0A6FC00222946306814F0B9F96C4E47
:1043200020682BF091FC42F2D171306011F0A4F8BA
:10433000306842F2D17111F0B7F830686FF0C10106
:1043400011F05FF830682C2111F073F83068092102
:1043500011F02AF930685F492BF082FC00222946CF
:10436000306814F095F95C4E20682BF06DFC42F239
:10437000D171306011F080F8306842F2D17111F0E3
:1043800093F830686FF0C50111F03BF830685321A5
:1043900011F04FF83068092111F006F930684F49E3
:1043A0002BF05EFC00222946306814F071F94C4E67
:1043B00020682BF049FC42F2D171306011F05CF8BA
:1043C000306842F2D17111F06FF830686FF0BB01C4
:1043D00011F017F83068782111F02BF830680921B6
:1043E00011F0E2F830683F492BF03AFC00222946F0
:1043F000306814F04DF93C4E20682AF02FFA394607
:1044000030602AF037FA306842F2D17111F034F896
:10441000306842F2D171354F11F046F830686FF0D4
:10442000850110F0EEFF30686FF01D0111F001F80A
:104430003068092111F0B8F830684FF4004110F0ED
:104440000BF91021306810F03CF9294E20682DF04E
:10445000C7F91E21306011F00FF830680E2111F0FD
:1044600023F830686FF0580110F0CBFF30686FF020
:104470001F0110F0DEFF0921306811F095F81D4E84
:1044800020682BF0E1FB42F2D171306010F0F4FFB4
:10449000306842F2D17111F007F830686FF0B30163
:1044A00010F0AFFF30686FF01F0110F0C2FF3068EE
:1044B000092121E0880C00248C0C0024AC0D002480
:1044C000056A0308B00D0024F00D0024176A0308E4
:1044D000F80D0024216A03080C0E0024116903085A
:1044E0003C0E00242B6A03087C0C0024DC0F002403
:1044F000CC0F0024B40D002411F056F83068CE49DA
:104500002BF0AEFB00222946306814F0C1F8CB4EE8
:1045100020682DF065F91E21306010F0ADFF306885
:104520000E2110F0C1FF30686FF0580110F069FFE4
:1045300030686FF0460110F07CFF0921306811F0FF
:1045400033F8BF4E20682BF07FFB42F2D171306010
:1045500010F092FF306842F2D17110F0A5FF306880
:104560006FF03B0110F04DFF30686FF01F0110F04D
:1045700060FF3068092111F017F8414630682BF0D0
:104580006FFB59463068002214F076F8306800223C
:10459000FF2114F077F800225146306814F078F8C3
:1045A000A84E20682DF01CF91E21306010F064FF29
:1045B00030680E2110F078FF30686FF0580110F06D
:1045C00020FF3068072110F034FF0921306810F017
:1045D000EBFF9D4E20682BF037FB42F2D17130602B
:1045E00010F04AFF306842F2D17110F05DFF306880
:1045F0006FF03B0110F005FF3068072110F019FF44
:104600003068092110F0D0FF414630682BF028FBBC
:1046100059463068002214F02FF830680022FF213C
:1046200014F030F800225146306814F031F8206858
:104630002DF0D6F81E21C9F8000010F01DFFD9F8A2
:1046400000000E2110F030FFD9F800006FF0580183
:104650007E4E10F0D6FED9F800002C2110F0E9FEB5
:104660000921D9F8000010F09FFF20682BF0ECFA28
:1046700042F2D171306010F0FFFE306842F2D17129
:1046800010F012FF30686FF03B0110F0BAFE306896
:104690002C2110F0CEFE3068092110F085FF414634
:1046A00030682BF0DDFA59463068002213F0E4FF41
:1046B00030680022FF2113F0E5FF002251463068E8
:1046C00013F0E6FF20682DF08BF8614B1E211E468B
:1046D000186010F0D1FE0E21306810F0E5FE306851
:1046E0006FF0580110F08DFE3068542110F0A1FEDB
:1046F0000921306810F058FF564E20682BF0A4FABC
:1047000042F2D171306010F0B7FE306842F2D171E0
:1047100010F0CAFE30686FF03B0110F072FE306896
:10472000522110F086FE3068092110F03DFF41460D
:1047300030682BF095FA59463068002213F09CFF40
:1047400030680022FF2113F09DFF0022514630689F
:1047500013F09EFF20682DF043F81E21386010F002
:104760008BFE38680E2110F09FFE38686FF05801FC
:10477000394E10F046FE3868782110F05AFE0921B3
:10478000386810F011FF20682BF05EFA42F2D17108
:10479000306010F071FE306842F2D17110F084FE8A
:1047A00030686FF03B0110F02CFE3068772110F07C
:1047B00040FE3068092110F0F7FE414630682BF0CA
:1047C0004FFA59463068002213F056FF3068002235
:1047D000FF2113F057FF00225146306813F058FFB5
:1047E0001E4E20684FF0FF3A2BF02EFA42F2D171A4
:1047F000306010F041FE306842F2D17110F054FE8A
:104800003068B2214FF07F4B10F0FBFD30686FF045
:10481000210110F00EFE3068092110F0C5FE30684D
:104820000F492BF01DFA00222946306813F030FFA3
:104830000C4E206818E000BF356A0308C80F00243A
:10484000B80D0024D00F0024BC0D0024C00D00249E
:10485000D80F0024C40D0024C80D0024200D00240E
:10486000436A03082C0D00242BF0EEF942F2D171BB
:10487000306010F001FE306842F2D17110F014FE89
:104880003068DB2110F0BDFD30686FF0210110F0C1
:10489000D0FD3068092110F087FE3068C7492BF041
:1048A000DFF900222946306813F0F2FEC44E20687A
:1048B0002BF0CAF942F2D171306010F0DDFD3068A2
:1048C00042F2D17110F0F0FD3068A32110F099FD93
:1048D0003068042110F0ADFD3068092110F064FE4D
:1048E0003068B8492BF0BCF900222946306813F033
:1048F000CFFEB54E20682BF0A7F942F2D17130609F
:1049000010F0BAFD306842F2D17110F0CDFD306880
:10491000BD2110F076FD3068042110F08AFD30686A
:10492000092110F041FE3068A8492BF099F90022C6
:104930002946306813F0ACFEA54E20682BF084F9B0
:1049400042F2D171306010F097FD306842F2D171BF
:1049500010F0AAFD3068A22110F053FD30682A2122
:1049600010F067FD3068092110F01EFE306899498B
:104970002BF076F900222946306813F089FE964E16
:1049800020682BF061F942F2D171306010F074FDB3
:10499000306842F2D17110F087FD3068C02110F00C
:1049A00030FD30682A2110F044FD3068092110F0F4
:1049B000FBFD306889492BF053F900222946306805
:1049C00013F066FE864E20682BF03EF942F2D1715C
:1049D000306010F051FD306842F2D17110F064FD8A
:1049E0003068CA2110F00DFD3068502110F021FD13
:1049F0003068092110F0D8FD30687A492BF030F981
:104A000000222946306813F043FE774E20682BF0D1
:104A10001BF942F2D171306010F02EFD306842F285
:104A2000D17110F041FD3068CD2110F0EAFC306802
:104A3000752110F0FEFC3068092110F0B5FD3068DA
:104A40006A492BF00DF9002229463068684D13F0B1
:104A50001FFE206827F0FCFE2221286010F00CFDCC
:104A60002868212110F020FD28686FF0C201614EF6
:104A700010F0C7FC28686FF0700110F0DAFC2868AD
:104A8000092110F091FD28684FF400710FF0E4FD4A
:104A9000286810210FF015FE51462868002213F0F7
:104AA000B5FD00222868114613F0B5FD5946286867
:104AB000002213F0D6FD00222868114613F0D6FD1F
:104AC000286829F0CBFE4C49306029F0D3FE3068CD
:104AD00042F2D17110F0D0FC306842F2D17110F086
:104AE000E3FC5146306810F08CFC3068002110F077
:104AF000A0FC3068092110F057FD30684FF40041E8
:104B00000FF0AAFD306810210FF0DBFD4FF4E171CA
:104B100030682AF0C5FA2068384C27F099FE222127
:104B2000374E206010F0A8FC2068212110F0BCFC5A
:104B30002068C92110F065FC20686FF0710110F049
:104B400078FC2068092110F02FFD20684FF40071D7
:104B50000FF082FD206810210FF0B3FD5146206850
:104B6000002213F053FD00222068114613F053FD7C
:104B700059462068002213F074FD00222068114677
:104B800013F074FD206829F069FE1E49306029F099
:104B900071FE306842F2D17110F06EFC306842F262
:104BA000D17110F081FC5146306810F02AFC306859
:104BB000002110F03EFC3068092125E04B6A030813
:104BC000340D00244F6A0308380D0024536A03088B
:104BD0003C0D0024486A0308440D0024576A03086A
:104BE0004C0D00245C6A0308540D0024626A03081B
:104BF000380B0024A80C0024D0230408A80F00249C
:104C0000B80C0024640B080810F0CEFC30684FF498
:104C100000410FF021FD306810210FF052FD306887
:104C20004FF4E1712AF03CFA00231B481A461B4955
:104C300000680DF0BFFB002319481A4619490068A7
:104C40000DF0B8FB002318481A46184900680DF00B
:104C5000B1FB002316491A46D9F800000DF0AAFB53
:104C6000002314481A46144900680DF0A3FB0023E2
:104C700012491A4638680DF09DFB002310491A4668
:104C800028680DF097FB00230E491A46206801B0F2
:104C9000BDE8F04F0DF08EBBCC0F0024250B0008B3
:104CA000C80F0024450B0008D00F0024650B000836
:104CB000850B0008D80F0024A50B0008C50B0008C1
:104CC000750C0008A50C00082DE9F0470020C94C20
:104CD0000FF0B6FC1021C84D4FF0FF3720600FF0E9
:104CE000F0FC206829F0BAFDC449286029F0C2FD13
:104CF000286842F2D17110F0BFFB286842F2D171EE
:104D0000BF4E10F0D1FB28686FF00601DFF830834A
:104D100010F077FB28680021DFF8289310F089FB5A
:104D20002868092110F040FC28684FF400410FF07A
:104D300093FC286810210FF0C4FC4FF42F712868F1
:104D40002AF0AEF9AF4D206829F088FDAE49286001
:104D500029F090FD286842F2D17110F08DFB28688F
:104D600042F2D17110F0A0FB2868012110F049FB3C
:104D700028686FF0790110F05CFB2868092110F0B9
:104D800013FC28684FF400410FF066FC28681021DE
:104D90000FF097FC4FF4E17128684FF07F452AF03F
:104DA0007FF9206827F054FD2221306010F064FB69
:104DB0003068212110F078FB30686FF0C20110F0EC
:104DC00020FB30686FF0700110F033FB3068092170
:104DD00010F0EAFB30684FF400710FF03DFC3068D2
:104DE00010210FF06EFC39463068002213F00EFCE3
:104DF00000223068114613F00EFC2946306800226C
:104E000013F02FFC00223068114613F02FFC30689D
:104E10007E4E29F023FD7E49306029F02BFD30685D
:104E200042F2D17110F028FB306842F2D17110F0DB
:104E30003BFB3946306810F0E4FA3068002110F08E
:104E4000F8FA3068092110F0AFFB30684FF40041E8
:104E50000FF002FC306810210FF033FC4FF4E171C9
:104E600030682AF01DF96B4E206827F0F1FC2221F2
:104E7000306010F001FB3068212110F015FB306824
:104E8000C92110F0BEFA30686FF0710110F0D1FA4C
:104E90003068092110F088FB30684FF400710FF082
:104EA000DBFB306810210FF00CFC39463068002223
:104EB00013F0ACFB00223068114613F0ACFB29461E
:104EC0003068002213F0CDFB00223068114613F049
:104ED000CDFB3068504E29F0C1FC5049306029F0BC
:104EE000C9FC306842F2D17110F0C6FA306842F263
:104EF000D17110F0D9FA3946306810F082FA306872
:104F0000002110F096FA3068092110F04DFB30684E
:104F10004FF400410FF0A0FB306810210FF0D1FBDF
:104F20004FF4E17130682AF0BBF83D4E20682AF05A
:104F30008BFE42F2D171306010F09EFA306842F27E
:104F4000D17110F0B1FA3068012110F05AFA3068CE
:104F50006FF0790110F06DFA3068092110F024FB30
:104F6000306830492AF07CFE39463068002213F060
:104F700083FB30680022FF2113F084FB00222A49C2
:104F8000306813F085FB294E20682AF05DFE42F25E
:104F9000D171306010F070FA306842F2D17110F0C7
:104FA00083FA30686FF09601214F10F02AFA3068CA
:104FB0006FF0450110F03DFA3068092110F0F4FA65
:104FC00030681C492AF04CFE29463068002213F054
:104FD00053FB30680022FF2113F054FB00221649D6
:104FE000306813F055FB154E206829F037FC394620
:104FF000306029E0100C0024B40C0024EC260408D6
:10500000440B0024D40C0024800E0808D80C002483
:10501000D0230408B80F0024DC0C0024640B08081B
:10502000F00F0024686A030840C80308EC0D002450
:10503000FC4808087B6A03086C9B0308900B00245B
:10504000E00B0024F40D002429F014FC306842F237
:10505000D17110F011FA306842F2D17110F024FAD7
:1050600030686FF08F0110F0CCF930686FF02101DB
:1050700010F0DFF93068092110F096FA30684FF42B
:1050800000410FF0E9FA306810210FF01AFB4FF4DD
:10509000FA7130682AF004F830682AF0D5FD42F23F
:1050A000D171C8F8000010F0E7F9D8F8000042F21A
:1050B000D17110F0F9F9D8F800000121F84E10F084
:1050C000A0F9D8F800006FF0010110F0B2F9D8F89B
:1050D0000000092110F068FAD8F80000F1492AF020
:1050E000BFFD2946D8F80000002213F0C5FAD8F811
:1050F00000000022FF2113F0C5FA00223146D8F843
:10510000000013F0C5FADFF8B083206829F0A6FB91
:105110003946C8F8000029F0ADFBD8F8000042F28B
:10512000D17110F0A9F9D8F8000042F2D17110F055
:10513000BBF9D8F800006FF02F0110F062F9D8F831
:1051400000006FF0210110F074F9D8F80000092177
:1051500010F02AFAD8F800004FF400410FF07CFA62
:10516000D8F8000010210FF0ACFA4FF4FA71D8F81B
:10517000000029F095FFD8F80000DFF840832AF0FE
:1051800063FD42F2D171C8F8000010F075F9D8F84B
:10519000000042F2D17110F087F9D8F80000012127
:1051A00010F02FF9D8F800006FF0010110F041F96C
:1051B000D8F80000092110F0F7F9D8F80000BA4932
:1051C0002AF04EFD2946D8F80000002213F054FAC8
:1051D000D8F800000022FF2113F054FA00223146D3
:1051E000D8F8000013F054FADFF8D482206829F0D0
:1051F00035FB3946C8F8000029F03CFBD8F8000020
:1052000042F2D17110F038F9D8F8000042F2D171B1
:1052100010F04AF9D8F80000302110F0F2F8D8F870
:1052200000006FF0210110F004F9D8F80000092106
:1052300010F0BAF9D8F800004FF400410FF00CFA62
:10524000D8F8000010210FF03CFA4FF4FA71D8F8AA
:10525000000029F025FFD8F80000DFF868822AF066
:10526000F3FC42F2D171C8F8000010F005F9D8F84B
:10527000000042F2D17110F017F9D8F800000121B6
:1052800010F0BFF8D8F800006FF0010110F0D1F86D
:10529000D8F80000092110F087F9D8F800008349F8
:1052A0002AF0DEFC2946D8F80000002213F0E4F9C9
:1052B000D8F800000022FF2113F0E4F90022314663
:1052C000D8F8000013F0E4F9DFF8FC81206829F039
:1052D000C5FA3946C8F8000029F0CCFAD8F8000021
:1052E00042F2D17110F0C8F8D8F8000042F2D17142
:1052F00010F0DAF8D8F80000902110F082F8D8F811
:1053000000006FF0210110F094F8D8F80000092196
:1053100010F04AF9D8F800004FF400410FF09CF962
:10532000D8F8000010210FF0CCF94FF4FA71D8F83A
:10533000000029F0B5FED8F80000DFF890812AF0CF
:1053400083FC42F2D171C8F8000010F095F8D8F84B
:10535000000042F2D17110F0A7F8D8F80000012146
:1053600010F04FF8D8F800006FF0010110F061F86C
:10537000D8F80000092110F017F9D8F800004C49BE
:105380002AF06EFC2946D8F80000002213F074F9C8
:10539000D8F800000022FF2113F074F900223146F2
:1053A000D8F8000013F074F9DFF82481206829F0A0
:1053B00055FA3946C8F8000029F05CFAD8F8000020
:1053C00042F2D17110F058F8D8F8000042F2D171D1
:1053D00010F06AF8D8F800006FF08F0110F011F8A3
:1053E000D8F800006FF0070110F023F8D8F800009B
:1053F000092110F0D9F8D8F800004FF400410FF05F
:105400002BF9D8F8000010210FF05BF94FF4FA7176
:10541000D8F8000029F044FED8F80000DFF8B48086
:105420002AF012FC42F2D171C8F8000010F024F802
:10543000D8F8000042F2D17110F036F8D8F8000028
:1054400001210FF0DEFFD8F800006FF001010FF02E
:10545000F0FFD8F80000092110F0A6F8D8F80000F5
:1054600014492AF0FDFB2946D8F80000002213F069
:1054700003F9D8F800000022FF2113F003F90022FD
:105480003146D8F8000013F003F9DFF84C802068AB
:1054900029F0E4F93946C8F8000029F0EBF91DE0DD
:1054A000A01B04088B6A0308956A03089F6A030817
:1054B000A96A0308B36A0308980B0024F00B0024C0
:1054C0009C0B0024F40B0024A00B0024F80B0024F8
:1054D000A40B0024FC0B0024A80B0024D8F8000027
:1054E00042F2D1710FF0C8FFD8F8000042F2D1713A
:1054F0000FF0DAFFD8F800006FF02F010FF081FFF6
:10550000D8F800006FF007010FF093FFD8F8000003
:10551000092110F049F8D8F800004FF400410FF0CD
:105520009BF8D8F8000010210FF0CBF84FF4FA7177
:10553000D8F8000029F0B4FDD8F80000DFF83C846A
:105540002AF082FB42F2D171C8F800000FF094FFFC
:10555000D8F8000042F2D1710FF0A6FFD8F8000091
:1055600001210FF04EFFD8F800006FF001010FF09D
:1055700060FFD8F80000092110F016F8D8F80000F4
:10558000F9492AF06DFB2946D8F80000002213F0F3
:1055900073F8D8F800000022FF2113F073F80022FE
:1055A0003146D8F8000013F073F8DFF8D483206890
:1055B00029F054F93946C8F8000029F05BF9D8F809
:1055C000000042F2D1710FF057FFD8F8000042F20C
:1055D000D1710FF069FFD8F8000030210FF011FFF2
:1055E000D8F800006FF007010FF023FFD8F8000093
:1055F00009210FF0D9FFD8F800004FF400410FF057
:105600002BF8D8F8000010210FF05BF84FF4FA7176
:10561000D8F8000029F044FDD8F80000DFF86483D2
:105620002AF012FB42F2D171C8F800000FF024FFFB
:10563000D8F8000042F2D1710FF036FFD8F8000020
:1056400001210FF0DEFED8F800006FF001010FF02D
:10565000F0FED8F8000009210FF0A6FFD8F80000EE
:10566000C2492AF0FDFA2946D8F80000002213F0BA
:1056700003F8D8F800000022FF2113F003F80022FD
:105680003146D8F8000013F003F8DFF8FC822068F8
:1056900029F0E4F83946C8F8000029F0EBF8D8F80A
:1056A000000042F2D1710FF0E7FED8F8000042F29C
:1056B000D1710FF0F9FED8F8000090210FF0A1FE93
:1056C000D8F800006FF007010FF0B3FED8F8000023
:1056D00009210FF069FFD8F800004FF400410EF0E7
:1056E000BBFFD8F8000010210EF0EBFF4FF4FA7169
:1056F000D8F8000029F0D4FCD8F80000DFF88C823C
:105700002AF0A2FA42F2D171C8F800000FF0B4FEFC
:10571000D8F8000042F2D1710FF0C6FED8F80000B0
:1057200001210FF06EFED8F800006FF001010FF0BC
:1057300080FED8F8000009210FF036FFD8F80000ED
:105740008B492AF08DFA2946D8F80000002212F081
:1057500093FFD8F800000022FF2112F093FF0022EF
:105760003146D8F8000012F093FFDFF82482206859
:1057700029F074F83946C8F8000029F07BF8D8F809
:10578000000042F2D1710FF077FED8F8000042F22B
:10579000D1710FF089FED8F800006FF08F010FF083
:1057A00030FED8F8000011210FF043FED8F80000B9
:1057B00009210FF0F9FED8F800004FF400410EF077
:1057C0004BFFD8F8000010210EF07BFF4FF4FA7168
:1057D000D8F8000029F064FCD8F80000DFF8B481A4
:1057E0002AF032FA42F2D171C8F800000FF044FEFC
:1057F000D8F8000042F2D1710FF056FED8F8000040
:1058000001210FF0FEFDD8F800006FF001010FF04C
:1058100010FED8F8000009210FF0C6FED8F80000ED
:1058200054492AF01DFA2946D8F80000002212F047
:1058300023FFD8F800000022FF2112F023FF0022EE
:105840003146D8F8000012F023FFDFF84C812068C1
:1058500029F004F83946C8F8000029F00BF8D8F808
:10586000000042F2D1710FF007FED8F8000042F2BA
:10587000D1710FF019FED8F8000030210FF0C1FDF2
:10588000D8F8000011210FF0D4FDD8F8000009214C
:105890000FF08AFED8F800004FF400410EF0DCFE55
:1058A000D8F8000010210EF00CFF4FF4FA71D8F870
:1058B000000029F0F5FBD8F80000DFF8E0802AF0BE
:1058C000C3F942F2D171C8F800000FF0D5FDD8F845
:1058D000000042F2D1710FF0E7FDD8F8000001217D
:1058E0000FF08FFDD8F800006FF001010FF0A1FD5F
:1058F000D8F8000009210FF057FED8F800001E4923
:105900002AF0AEF92946D8F80000002212F0B4FEC1
:10591000D8F800000022FF2112F0B4FE0022314628
:10592000D8F8000012F0B4FEDFF87480206828F088
:1059300095FF3946C8F8000028F09CFFD8F8000011
:1059400042F2D1710FF098FDD8F8000042F2D17107
:105950000FF0AAFDD8F8000090210FF052FDD8F802
:10596000000011211EE000BFBD6A0308C76A0308DA
:10597000D16A0308DB6A0308E56A0308000C002407
:10598000AC0B0024040C0024B00B0024080C0024F1
:10599000B40B00240C0C0024B80B0024E40B0024EE
:1059A000BC0B00240FF045FDD8F8000009210FF0D2
:1059B000FBFDD8F800004FF400410EF04DFED8F882
:1059C000000010210EF07DFE4FF4FA71D8F80000AF
:1059D00029F066FBD8F80000DFF838842AF034F9A3
:1059E00042F2D171C8F800000FF046FDD8F800006F
:1059F00042F2D1710FF058FDD8F8000001210FF0EC
:105A000000FDD8F800006FF001010FF012FDD8F88A
:105A1000000009210FF0C8FDD8F80000F4492AF071
:105A20001FF92946D8F80000002212F025FED8F808
:105A300000000022FF2112F025FE00223146D8F896
:105A4000000012F025FE20682AF0FEF842F2D17123
:105A5000C9F800000FF010FDD9F8000042F2D17132
:105A60000FF022FDD9F800006FF07A01DFF8A8836B
:105A70000FF0C7FCD9F8000033210FF0DAFCD9F899
:105A8000000009210FF090FDD9F80000D9492AF053
:105A9000E7F82946D9F80000002212F0EDFDD9F808
:105AA00000000022FF2112F0EDFD00224146D9F84E
:105AB000000012F0EDFDDFF8649320682AF0C4F8CE
:105AC00042F2D171C9F800000FF0D6FCD9F80000FD
:105AD00042F2D1710FF0E8FCD9F800006FF09E019E
